{
  "contractName": "Meme",
  "abi": [
    {
      "constant": false,
      "inputs": [
        {
          "name": "_memeHash",
          "type": "string"
        }
      ],
      "name": "set",
      "outputs": [],
      "payable": false,
      "stateMutability": "nonpayable",
      "type": "function",
      "signature": "0x4ed3885e"
    },
    {
      "constant": false,
      "inputs": [
        {
          "name": "_memeHash1",
          "type": "string"
        }
      ],
      "name": "set1",
      "outputs": [],
      "payable": false,
      "stateMutability": "nonpayable",
      "type": "function",
      "signature": "0x8ac7fae5"
    },
    {
      "constant": false,
      "inputs": [
        {
          "name": "_memeHash2",
          "type": "string"
        }
      ],
      "name": "set2",
      "outputs": [],
      "payable": false,
      "stateMutability": "nonpayable",
      "type": "function",
      "signature": "0x94ab6263"
    },
    {
      "constant": true,
      "inputs": [],
      "name": "get",
      "outputs": [
        {
          "name": "",
          "type": "string"
        }
      ],
      "payable": false,
      "stateMutability": "view",
      "type": "function",
      "signature": "0x6d4ce63c"
    },
    {
      "constant": true,
      "inputs": [],
      "name": "get1",
      "outputs": [
        {
          "name": "",
          "type": "string"
        }
      ],
      "payable": false,
      "stateMutability": "view",
      "type": "function",
      "signature": "0x054c1a75"
    },
    {
      "constant": true,
      "inputs": [],
      "name": "get2",
      "outputs": [
        {
          "name": "",
          "type": "string"
        }
      ],
      "payable": false,
      "stateMutability": "view",
      "type": "function",
      "signature": "0xd2178b08"
    }
  ],
  "bytecode": "0x608060405234801561001057600080fd5b5061078a806100206000396000f3fe608060405260043610610078576000357c0100000000000000000000000000000000000000000000000000000000900463ffffffff168063054c1a751461007d5780634ed3885e1461010d5780636d4ce63c146101d55780638ac7fae51461026557806394ab62631461032d578063d2178b08146103f5575b600080fd5b34801561008957600080fd5b50610092610485565b6040518080602001828103825283818151815260200191508051906020019080838360005b838110156100d25780820151818401526020810190506100b7565b50505050905090810190601f1680156100ff5780820380516001836020036101000a031916815260200191505b509250505060405180910390f35b34801561011957600080fd5b506101d36004803603602081101561013057600080fd5b810190808035906020019064010000000081111561014d57600080fd5b82018360208201111561015f57600080fd5b8035906020019184600183028401116401000000008311171561018157600080fd5b91908080601f016020809104026020016040519081016040528093929190818152602001838380828437600081840152601f19601f820116905080830192505050505050509192919290505050610527565b005b3480156101e157600080fd5b506101ea610541565b6040518080602001828103825283818151815260200191508051906020019080838360005b8381101561022a57808201518184015260208101905061020f565b50505050905090810190601f1680156102575780820380516001836020036101000a031916815260200191505b509250505060405180910390f35b34801561027157600080fd5b5061032b6004803603602081101561028857600080fd5b81019080803590602001906401000000008111156102a557600080fd5b8201836020820111156102b757600080fd5b803590602001918460018302840111640100000000831117156102d957600080fd5b91908080601f016020809104026020016040519081016040528093929190818152602001838380828437600081840152601f19601f8201169050808301925050505050505091929192905050506105e3565b005b34801561033957600080fd5b506103f36004803603602081101561035057600080fd5b810190808035906020019064010000000081111561036d57600080fd5b82018360208201111561037f57600080fd5b803590602001918460018302840111640100000000831117156103a157600080fd5b91908080601f016020809104026020016040519081016040528093929190818152602001838380828437600081840152601f19601f8201169050808301925050505050505091929192905050506105fd565b005b34801561040157600080fd5b5061040a610617565b6040518080602001828103825283818151815260200191508051906020019080838360005b8381101561044a57808201518184015260208101905061042f565b50505050905090810190601f1680156104775780820380516001836020036101000a031916815260200191505b509250505060405180910390f35b606060018054600181600116156101000203166002900480601f01602080910402602001604051908101604052809291908181526020018280546001816001161561010002031660029004801561051d5780601f106104f25761010080835404028352916020019161051d565b820191906000526020600020905b81548152906001019060200180831161050057829003601f168201915b5050505050905090565b806000908051906020019061053d9291906106b9565b5050565b606060008054600181600116156101000203166002900480601f0160208091040260200160405190810160405280929190818152602001828054600181600116156101000203166002900480156105d95780601f106105ae576101008083540402835291602001916105d9565b820191906000526020600020905b8154815290600101906020018083116105bc57829003601f168201915b5050505050905090565b80600190805190602001906105f99291906106b9565b5050565b80600290805190602001906106139291906106b9565b5050565b606060028054600181600116156101000203166002900480601f0160208091040260200160405190810160405280929190818152602001828054600181600116156101000203166002900480156106af5780601f10610684576101008083540402835291602001916106af565b820191906000526020600020905b81548152906001019060200180831161069257829003601f168201915b5050505050905090565b828054600181600116156101000203166002900490600052602060002090601f016020900481019282601f106106fa57805160ff1916838001178555610728565b82800160010185558215610728579182015b8281111561072757825182559160200191906001019061070c565b5b5090506107359190610739565b5090565b61075b91905b8082111561075757600081600090555060010161073f565b5090565b9056fea165627a7a7230582063a8e95720115deadceb70f2d5a0e6a2f29edc363832e8c0e4d0a43a274e24a00029",
  "source": "pragma solidity 0.5.0;\n\ncontract Meme {\n\t// Smart Contract Code \n\n\tstring memeHash;\n\tstring memeHash1;\n\tstring memeHash2;\n\t//Write Function\n\tfunction set(string memory _memeHash) public {\n       memeHash = _memeHash;\n\t}\n\t\n\tfunction set1(string memory _memeHash1) public {\n       memeHash1 = _memeHash1;\n\t}\n\t\n\tfunction set2(string memory _memeHash2) public {\n       memeHash2 = _memeHash2;\n\t}\n\n\t//Read Function\n\n\tfunction get() public view returns (string memory) {\n\t  return memeHash;\n\t}\n\t\n\tfunction get1() public view returns (string memory) {\n\t  return memeHash1;\n\t}\n\t\n\tfunction get2() public view returns (string memory) {\n\t  return memeHash2;\n\t}\n}\n",
  "sourcePath": "/home/neel/Desktop/Decentralized-Web-Server-master/src/contracts/Meme.sol",
  "compiler": {
    "name": "solc",
    "version": "0.5.0+commit.1d4f565a.Emscripten.clang"
  },
  "schemaVersion": "3.0.2",
  "updatedAt": "2020-11-04T17:29:13.049Z",
  "devdoc": {
    "methods": {}
  },
  "userdoc": {
    "methods": {}
  }
}